{
  "_format": "hh-sol-artifact-1",
  "contractName": "Transactions",
  "sourceName": "contracts/Transactions.sol",
  "abi": [
    {
      "anonymous": false,
      "inputs": [
        {
          "indexed": false,
          "internalType": "address",
          "name": "from",
          "type": "address"
        },
        {
          "indexed": false,
          "internalType": "address",
          "name": "receiver",
          "type": "address"
        },
        {
          "indexed": false,
          "internalType": "uint256",
          "name": "amount",
          "type": "uint256"
        },
        {
          "indexed": false,
          "internalType": "uint256",
          "name": "timestamp",
          "type": "uint256"
        },
        {
          "indexed": false,
          "internalType": "string",
          "name": "action",
          "type": "string"
        },
        {
          "indexed": false,
          "internalType": "string",
          "name": "contractImage",
          "type": "string"
        }
      ],
      "name": "Transfer",
      "type": "event"
    },
    {
      "inputs": [
        {
          "internalType": "address payable",
          "name": "receiver",
          "type": "address"
        },
        {
          "internalType": "uint256",
          "name": "amount",
          "type": "uint256"
        },
        {
          "internalType": "string",
          "name": "action",
          "type": "string"
        },
        {
          "internalType": "string",
          "name": "contractImage",
          "type": "string"
        }
      ],
      "name": "addToBlockchain",
      "outputs": [],
      "stateMutability": "nonpayable",
      "type": "function"
    },
    {
      "inputs": [],
      "name": "getLatestTransactions",
      "outputs": [
        {
          "components": [
            {
              "internalType": "address",
              "name": "sender",
              "type": "address"
            },
            {
              "internalType": "address",
              "name": "receiver",
              "type": "address"
            },
            {
              "internalType": "uint256",
              "name": "amount",
              "type": "uint256"
            },
            {
              "internalType": "uint256",
              "name": "timestamp",
              "type": "uint256"
            },
            {
              "internalType": "string",
              "name": "action",
              "type": "string"
            },
            {
              "internalType": "string",
              "name": "contractImage",
              "type": "string"
            }
          ],
          "internalType": "struct Transactions.TransferStructure[]",
          "name": "",
          "type": "tuple[]"
        }
      ],
      "stateMutability": "view",
      "type": "function"
    },
    {
      "inputs": [],
      "name": "getTransactionCount",
      "outputs": [
        {
          "internalType": "uint256",
          "name": "",
          "type": "uint256"
        }
      ],
      "stateMutability": "view",
      "type": "function"
    }
  ],
  "bytecode": "0x608060405234801561001057600080fd5b50611324806100206000396000f3fe608060405234801561001057600080fd5b50600436106100415760003560e01c80632e7700f01461004657806335617fca14610064578063cc2d7ead14610082575b600080fd5b61004e61009e565b60405161005b9190610f6e565b60405180910390f35b61006c6100a7565b6040516100799190610f4c565b60405180910390f35b61009c60048036038101906100979190610c74565b6102ea565b005b60008054905090565b60606001805480602002602001604051908101604052809291908181526020016000905b828210156102e157838290600052602060002090600602016040518060c00160405290816000820160009054906101000a900473ffffffffffffffffffffffffffffffffffffffff1673ffffffffffffffffffffffffffffffffffffffff1673ffffffffffffffffffffffffffffffffffffffff1681526020016001820160009054906101000a900473ffffffffffffffffffffffffffffffffffffffff1673ffffffffffffffffffffffffffffffffffffffff1673ffffffffffffffffffffffffffffffffffffffff16815260200160028201548152602001600382015481526020016004820180546101be906111bf565b80601f01602080910402602001604051908101604052809291908181526020018280546101ea906111bf565b80156102375780601f1061020c57610100808354040283529160200191610237565b820191906000526020600020905b81548152906001019060200180831161021a57829003601f168201915b50505050508152602001600582018054610250906111bf565b80601f016020809104026020016040519081016040528092919081815260200182805461027c906111bf565b80156102c95780601f1061029e576101008083540402835291602001916102c9565b820191906000526020600020905b8154815290600101906020018083116102ac57829003601f168201915b505050505081525050815260200190600101906100cb565b50505050905090565b60016000808282546102fc9190611045565b9250508190555060006040518060c001604052803373ffffffffffffffffffffffffffffffffffffffff1681526020018673ffffffffffffffffffffffffffffffffffffffff168152602001858152602001428152602001848152602001838152509050610369816103b1565b7f1e92c3b94e87106bb5e1f3493c1debe5003450085b72f643a2839c3e4dd25eb63386864287876040516103a296959493929190610edd565b60405180910390a15050505050565b600060018054905014156104ce57600181908060018154018082558091505060019003906000526020600020906006020160009091909190915060008201518160000160006101000a81548173ffffffffffffffffffffffffffffffffffffffff021916908373ffffffffffffffffffffffffffffffffffffffff16021790555060208201518160010160006101000a81548173ffffffffffffffffffffffffffffffffffffffff021916908373ffffffffffffffffffffffffffffffffffffffff160217905550604082015181600201556060820151816003015560808201518160040190805190602001906104a9929190610a72565b5060a08201518160050190805190602001906104c6929190610a72565b505050610a6f565b600180600180805490506104e2919061109b565b81548110610519577f4e487b7100000000000000000000000000000000000000000000000000000000600052603260045260246000fd5b906000526020600020906006020190806001815401808255809150506001900390600052602060002090600602016000909190919091506000820160009054906101000a900473ffffffffffffffffffffffffffffffffffffffff168160000160006101000a81548173ffffffffffffffffffffffffffffffffffffffff021916908373ffffffffffffffffffffffffffffffffffffffff1602179055506001820160009054906101000a900473ffffffffffffffffffffffffffffffffffffffff168160010160006101000a81548173ffffffffffffffffffffffffffffffffffffffff021916908373ffffffffffffffffffffffffffffffffffffffff16021790555060028201548160020155600382015481600301556004820181600401908054610646906111bf565b610651929190610af8565b506005820181600501908054610666906111bf565b610671929190610af8565b505050600060018080549050610687919061109b565b90505b600081111561086657600180826106a1919061109b565b815481106106d8577f4e487b7100000000000000000000000000000000000000000000000000000000600052603260045260246000fd5b906000526020600020906006020160018281548110610720577f4e487b7100000000000000000000000000000000000000000000000000000000600052603260045260246000fd5b90600052602060002090600602016000820160009054906101000a900473ffffffffffffffffffffffffffffffffffffffff168160000160006101000a81548173ffffffffffffffffffffffffffffffffffffffff021916908373ffffffffffffffffffffffffffffffffffffffff1602179055506001820160009054906101000a900473ffffffffffffffffffffffffffffffffffffffff168160010160006101000a81548173ffffffffffffffffffffffffffffffffffffffff021916908373ffffffffffffffffffffffffffffffffffffffff16021790555060028201548160020155600382015481600301556004820181600401908054610824906111bf565b61082f929190610af8565b506005820181600501908054610844906111bf565b61084f929190610af8565b50905050808061085e90611195565b91505061068a565b508060016000815481106108a3577f4e487b7100000000000000000000000000000000000000000000000000000000600052603260045260246000fd5b906000526020600020906006020160008201518160000160006101000a81548173ffffffffffffffffffffffffffffffffffffffff021916908373ffffffffffffffffffffffffffffffffffffffff16021790555060208201518160010160006101000a81548173ffffffffffffffffffffffffffffffffffffffff021916908373ffffffffffffffffffffffffffffffffffffffff1602179055506040820151816002015560608201518160030155608082015181600401908051906020019061096f929190610a72565b5060a082015181600501908051906020019061098c929190610a72565b5090505060096001805490501115610a6e5760018054806109d6577f4e487b7100000000000000000000000000000000000000000000000000000000600052603160045260246000fd5b6001900381819060005260206000209060060201600080820160006101000a81549073ffffffffffffffffffffffffffffffffffffffff02191690556001820160006101000a81549073ffffffffffffffffffffffffffffffffffffffff021916905560028201600090556003820160009055600482016000610a599190610b85565b600582016000610a699190610b85565b505090555b5b50565b828054610a7e906111bf565b90600052602060002090601f016020900481019282610aa05760008555610ae7565b82601f10610ab957805160ff1916838001178555610ae7565b82800160010185558215610ae7579182015b82811115610ae6578251825591602001919060010190610acb565b5b509050610af49190610bc5565b5090565b828054610b04906111bf565b90600052602060002090601f016020900481019282610b265760008555610b74565b82601f10610b375780548555610b74565b82800160010185558215610b7457600052602060002091601f016020900482015b82811115610b73578254825591600101919060010190610b58565b5b509050610b819190610bc5565b5090565b508054610b91906111bf565b6000825580601f10610ba35750610bc2565b601f016020900490600052602060002090810190610bc19190610bc5565b5b50565b5b80821115610bde576000816000905550600101610bc6565b5090565b6000610bf5610bf084610fae565b610f89565b905082815260208101848484011115610c0d57600080fd5b610c18848285611153565b509392505050565b600081359050610c2f816112c0565b92915050565b600082601f830112610c4657600080fd5b8135610c56848260208601610be2565b91505092915050565b600081359050610c6e816112d7565b92915050565b60008060008060808587031215610c8a57600080fd5b6000610c9887828801610c20565b9450506020610ca987828801610c5f565b935050604085013567ffffffffffffffff811115610cc657600080fd5b610cd287828801610c35565b925050606085013567ffffffffffffffff811115610cef57600080fd5b610cfb87828801610c35565b91505092959194509250565b6000610d138383610e2f565b905092915050565b610d248161111d565b82525050565b610d33816110cf565b82525050565b610d42816110cf565b82525050565b6000610d5382610fef565b610d5d8185611012565b935083602082028501610d6f85610fdf565b8060005b85811015610dab5784840389528151610d8c8582610d07565b9450610d9783611005565b925060208a01995050600181019050610d73565b50829750879550505050505092915050565b6000610dc882610ffa565b610dd28185611023565b9350610de2818560208601611162565b610deb816112af565b840191505092915050565b6000610e0182610ffa565b610e0b8185611034565b9350610e1b818560208601611162565b610e24816112af565b840191505092915050565b600060c083016000830151610e476000860182610d2a565b506020830151610e5a6020860182610d2a565b506040830151610e6d6040860182610ebf565b506060830151610e806060860182610ebf565b5060808301518482036080860152610e988282610dbd565b91505060a083015184820360a0860152610eb28282610dbd565b9150508091505092915050565b610ec881611113565b82525050565b610ed781611113565b82525050565b600060c082019050610ef26000830189610d39565b610eff6020830188610d1b565b610f0c6040830187610ece565b610f196060830186610ece565b8181036080830152610f2b8185610df6565b905081810360a0830152610f3f8184610df6565b9050979650505050505050565b60006020820190508181036000830152610f668184610d48565b905092915050565b6000602082019050610f836000830184610ece565b92915050565b6000610f93610fa4565b9050610f9f82826111f1565b919050565b6000604051905090565b600067ffffffffffffffff821115610fc957610fc8611280565b5b610fd2826112af565b9050602081019050919050565b6000819050602082019050919050565b600081519050919050565b600081519050919050565b6000602082019050919050565b600082825260208201905092915050565b600082825260208201905092915050565b600082825260208201905092915050565b600061105082611113565b915061105b83611113565b9250827fffffffffffffffffffffffffffffffffffffffffffffffffffffffffffffffff038211156110905761108f611222565b5b828201905092915050565b60006110a682611113565b91506110b183611113565b9250828210156110c4576110c3611222565b5b828203905092915050565b60006110da826110f3565b9050919050565b60006110ec826110f3565b9050919050565b600073ffffffffffffffffffffffffffffffffffffffff82169050919050565b6000819050919050565b60006111288261112f565b9050919050565b600061113a82611141565b9050919050565b600061114c826110f3565b9050919050565b82818337600083830152505050565b60005b83811015611180578082015181840152602081019050611165565b8381111561118f576000848401525b50505050565b60006111a082611113565b915060008214156111b4576111b3611222565b5b600182039050919050565b600060028204905060018216806111d757607f821691505b602082108114156111eb576111ea611251565b5b50919050565b6111fa826112af565b810181811067ffffffffffffffff8211171561121957611218611280565b5b80604052505050565b7f4e487b7100000000000000000000000000000000000000000000000000000000600052601160045260246000fd5b7f4e487b7100000000000000000000000000000000000000000000000000000000600052602260045260246000fd5b7f4e487b7100000000000000000000000000000000000000000000000000000000600052604160045260246000fd5b6000601f19601f8301169050919050565b6112c9816110e1565b81146112d457600080fd5b50565b6112e081611113565b81146112eb57600080fd5b5056fea2646970667358221220bdb09153d27249f9cc3e2028d28c3497e28af2f1a7bece634cfa4d40f03222cf64736f6c63430008040033",
  "linkReferences": {},
  "deployedLinkReferences": {}
}